{
  "contractName": "Crud",
  "abi": [
    {
      "constant": true,
      "inputs": [],
      "name": "nextId",
      "outputs": [
        {
          "internalType": "uint256",
          "name": "",
          "type": "uint256"
        }
      ],
      "payable": false,
      "stateMutability": "view",
      "type": "function"
    },
    {
      "constant": true,
      "inputs": [
        {
          "internalType": "uint256",
          "name": "",
          "type": "uint256"
        }
      ],
      "name": "users",
      "outputs": [
        {
          "internalType": "uint256",
          "name": "id",
          "type": "uint256"
        },
        {
          "internalType": "string",
          "name": "name",
          "type": "string"
        }
      ],
      "payable": false,
      "stateMutability": "view",
      "type": "function"
    },
    {
      "constant": false,
      "inputs": [
        {
          "internalType": "string",
          "name": "name",
          "type": "string"
        }
      ],
      "name": "create",
      "outputs": [],
      "payable": false,
      "stateMutability": "nonpayable",
      "type": "function"
    },
    {
      "constant": true,
      "inputs": [
        {
          "internalType": "uint256",
          "name": "id",
          "type": "uint256"
        }
      ],
      "name": "read",
      "outputs": [
        {
          "components": [
            {
              "internalType": "uint256",
              "name": "id",
              "type": "uint256"
            },
            {
              "internalType": "string",
              "name": "name",
              "type": "string"
            }
          ],
          "internalType": "struct Crud.User",
          "name": "",
          "type": "tuple"
        }
      ],
      "payable": false,
      "stateMutability": "view",
      "type": "function"
    },
    {
      "constant": true,
      "inputs": [],
      "name": "getUsers",
      "outputs": [
        {
          "components": [
            {
              "internalType": "uint256",
              "name": "id",
              "type": "uint256"
            },
            {
              "internalType": "string",
              "name": "name",
              "type": "string"
            }
          ],
          "internalType": "struct Crud.User[]",
          "name": "",
          "type": "tuple[]"
        }
      ],
      "payable": false,
      "stateMutability": "view",
      "type": "function"
    },
    {
      "constant": false,
      "inputs": [
        {
          "internalType": "uint256",
          "name": "id",
          "type": "uint256"
        },
        {
          "internalType": "string",
          "name": "name",
          "type": "string"
        }
      ],
      "name": "update",
      "outputs": [],
      "payable": false,
      "stateMutability": "nonpayable",
      "type": "function"
    },
    {
      "constant": false,
      "inputs": [
        {
          "internalType": "uint256",
          "name": "id",
          "type": "uint256"
        }
      ],
      "name": "destroy",
      "outputs": [],
      "payable": false,
      "stateMutability": "nonpayable",
      "type": "function"
    }
  ],
  "bytecode": "0x608060405234801561001057600080fd5b50610e2d806100206000396000f3fe608060405234801561001057600080fd5b506004361061007c5760003560e01c80639d1187701161005b5780639d118770146100ee578063b6a46b3b1461010a578063ed2e5a9714610126578063f745630f146101565761007c565b8062ce8e3e14610081578063365b98b21461009f57806361b8ce8c146100d0575b600080fd5b610089610172565b6040516100969190610c08565b60405180910390f35b6100b960048036036100b491908101906109b8565b61027d565b6040516100c7929190610c87565b60405180910390f35b6100d8610346565b6040516100e59190610c6c565b60405180910390f35b610108600480360361010391908101906109b8565b61034c565b005b610124600480360361011f9190810190610977565b61044e565b005b610140600480360361013b91908101906109b8565b6104d1565b60405161014d9190610c4a565b60405180910390f35b610170600480360361016b91908101906109e1565b6105c0565b005b60606000805480602002602001604051908101604052809291908181526020016000905b82821015610274578382906000526020600020906002020160405180604001604052908160008201548152602001600182018054600181600116156101000203166002900480601f01602080910402602001604051908101604052809291908181526020018280546001816001161561010002031660029004801561025c5780601f106102315761010080835404028352916020019161025c565b820191906000526020600020905b81548152906001019060200180831161023f57829003601f168201915b50505050508152505081526020019060010190610196565b50505050905090565b6000818154811061028a57fe5b9060005260206000209060020201600091509050806000015490806001018054600181600116156101000203166002900480601f01602080910402602001604051908101604052809291908181526020018280546001816001161561010002031660029004801561033c5780601f106103115761010080835404028352916020019161033c565b820191906000526020600020905b81548152906001019060200180831161031f57829003601f168201915b5050505050905082565b60015481565b600061035782610605565b90506000818154811061036657fe5b906000526020600020906002020160008082016000905560018201600061038d9190610697565b505060008054905082106103a1575061044b565b60008290505b60016000805490500381101561043257600060018201815481106103c757fe5b9060005260206000209060020201600082815481106103e257fe5b906000526020600020906002020160008201548160000155600182018160010190805460018160011615610100020316600290046104219291906106df565b5090505080806001019150506103a7565b5060008054809190600190036104489190610766565b50505b50565b60006040518060400160405280600154815260200183815250908060018154018082558091505090600182039060005260206000209060020201600090919290919091506000820151816000015560208201518160010190805190602001906104b8929190610798565b5050505060016000815480929190600101919050555050565b6104d9610818565b60006104e483610605565b9050600081815481106104f357fe5b906000526020600020906002020160405180604001604052908160008201548152602001600182018054600181600116156101000203166002900480601f0160208091040260200160405190810160405280929190818152602001828054600181600116156101000203166002900480156105af5780601f10610584576101008083540402835291602001916105af565b820191906000526020600020905b81548152906001019060200180831161059257829003601f168201915b505050505081525050915050919050565b60006105cb83610605565b905081600082815481106105db57fe5b906000526020600020906002020160010190805190602001906105ff929190610832565b50505050565b600080600090505b60008054905081101561065657826000828154811061062857fe5b90600052602060002090600202016000015414156106495780915050610692565b808060010191505061060d565b506040517f08c379a000000000000000000000000000000000000000000000000000000000815260040161068990610c2a565b60405180910390fd5b919050565b50805460018160011615610100020316600290046000825580601f106106bd57506106dc565b601f0160209004906000526020600020908101906106db91906108b2565b5b50565b828054600181600116156101000203166002900490600052602060002090601f016020900481019282601f106107185780548555610755565b8280016001018555821561075557600052602060002091601f016020900482015b82811115610754578254825591600101919060010190610739565b5b50905061076291906108b2565b5090565b8154818355818111156107935760020281600202836000526020600020918201910161079291906108d7565b5b505050565b828054600181600116156101000203166002900490600052602060002090601f016020900481019282601f106107d957805160ff1916838001178555610807565b82800160010185558215610807579182015b828111156108065782518255916020019190600101906107eb565b5b50905061081491906108b2565b5090565b604051806040016040528060008152602001606081525090565b828054600181600116156101000203166002900490600052602060002090601f016020900481019282601f1061087357805160ff19168380011785556108a1565b828001600101855582156108a1579182015b828111156108a0578251825591602001919060010190610885565b5b5090506108ae91906108b2565b5090565b6108d491905b808211156108d05760008160009055506001016108b8565b5090565b90565b61090b91905b80821115610907576000808201600090556001820160006108fe9190610697565b506002016108dd565b5090565b90565b600082601f83011261091f57600080fd5b813561093261092d82610ce4565b610cb7565b9150808252602083016020830185838301111561094e57600080fd5b610959838284610d80565b50505092915050565b60008135905061097181610dd3565b92915050565b60006020828403121561098957600080fd5b600082013567ffffffffffffffff8111156109a357600080fd5b6109af8482850161090e565b91505092915050565b6000602082840312156109ca57600080fd5b60006109d884828501610962565b91505092915050565b600080604083850312156109f457600080fd5b6000610a0285828601610962565b925050602083013567ffffffffffffffff811115610a1f57600080fd5b610a2b8582860161090e565b9150509250929050565b6000610a418383610bad565b905092915050565b6000610a5482610d20565b610a5e8185610d43565b935083602082028501610a7085610d10565b8060005b85811015610aac5784840389528151610a8d8582610a35565b9450610a9883610d36565b925060208a01995050600181019050610a74565b50829750879550505050505092915050565b6000610ac982610d2b565b610ad38185610d54565b9350610ae3818560208601610d8f565b610aec81610dc2565b840191505092915050565b6000610b0282610d2b565b610b0c8185610d65565b9350610b1c818560208601610d8f565b610b2581610dc2565b840191505092915050565b6000610b3d601383610d65565b91507f5573657220646f6573206e6f74206578697374000000000000000000000000006000830152602082019050919050565b6000604083016000830151610b886000860182610bea565b5060208301518482036020860152610ba08282610abe565b9150508091505092915050565b6000604083016000830151610bc56000860182610bea565b5060208301518482036020860152610bdd8282610abe565b9150508091505092915050565b610bf381610d76565b82525050565b610c0281610d76565b82525050565b60006020820190508181036000830152610c228184610a49565b905092915050565b60006020820190508181036000830152610c4381610b30565b9050919050565b60006020820190508181036000830152610c648184610b70565b905092915050565b6000602082019050610c816000830184610bf9565b92915050565b6000604082019050610c9c6000830185610bf9565b8181036020830152610cae8184610af7565b90509392505050565b6000604051905081810181811067ffffffffffffffff82111715610cda57600080fd5b8060405250919050565b600067ffffffffffffffff821115610cfb57600080fd5b601f19601f8301169050602081019050919050565b6000819050602082019050919050565b600081519050919050565b600081519050919050565b6000602082019050919050565b600082825260208201905092915050565b600082825260208201905092915050565b600082825260208201905092915050565b6000819050919050565b82818337600083830152505050565b60005b83811015610dad578082015181840152602081019050610d92565b83811115610dbc576000848401525b50505050565b6000601f19601f8301169050919050565b610ddc81610d76565b8114610de757600080fd5b5056fea365627a7a72315820b97b1606bc699eb9bce6e89a07678479c555e890efd485a6a41a57e5d9aded226c6578706572696d656e74616cf564736f6c63430005100040",
  "source": "pragma solidity ^0.5.0;\r\npragma experimental ABIEncoderV2;\r\n\r\ncontract Crud{\r\n\r\n    struct User{\r\n        uint id;\r\n        string name;\r\n    }\r\n\r\n    User[] public users;\r\n    uint public nextId;\r\n\r\n    function create(string memory name) public{\r\n        users.push(User(nextId, name));\r\n        nextId++;\r\n    }\r\n\r\n    function read(uint id) view public returns(User memory){\r\n        uint index = findIndex(id);\r\n        return users[index];\r\n    }\r\n    \r\n    function getUsers() view public returns(User[] memory){\r\n        return users;\r\n    }\r\n\r\n    function update(uint id, string memory name) public{\r\n        uint index = findIndex(id);\r\n        users[index].name = name;\r\n        \r\n    }\r\n\r\n    function findIndex(uint id) view internal returns(uint){\r\n       for(uint i=0;i<users.length;i++){\r\n            if(users[i].id == id){\r\n                return i;\r\n            } \r\n        }\r\n        revert(\"User does not exist\");\r\n    }\r\n    \r\n    function destroy(uint id) public{\r\n        uint index = findIndex(id);\r\n        delete users[index];\r\n        if (id >= users.length) return;\r\n        for (uint i=id; i < users.length-1; i++) {\r\n          users[i] = users[i+1];\r\n        }\r\n        users.length--;\r\n    }\r\n\r\n\r\n}",
  "sourcePath": "C:/Users/Usuario/Desktop/Proyectos/crud/contracts/Crud.sol",
  "compiler": {
    "name": "solc",
    "version": "0.5.16+commit.9c3226ce.Emscripten.clang"
  },
  "schemaVersion": "3.4.1",
  "updatedAt": "2021-07-17T07:46:35.204Z",
  "networkType": "ethereum",
  "devdoc": {
    "methods": {}
  },
  "userdoc": {
    "methods": {}
  }
}